{
  "contractName": "LumiToken",
  "abi": [
    {
      "inputs": [],
      "payable": false,
      "stateMutability": "nonpayable",
      "type": "constructor"
    },
    {
      "constant": true,
      "inputs": [],
      "name": "totalSupply",
      "outputs": [
        {
          "internalType": "uint256",
          "name": "",
          "type": "uint256"
        }
      ],
      "payable": false,
      "stateMutability": "view",
      "type": "function"
    }
  ],
  "bytecode": "0x6080604052348015600f57600080fd5b50629896806000819055506084806100286000396000f3fe6080604052348015600f57600080fd5b506004361060285760003560e01c806318160ddd14602d575b600080fd5b60336049565b6040518082815260200191505060405180910390f35b6000548156fea265627a7a72315820071133bb8952c1c60b5af3794bd8de282414a3972cdb972eee786e98fe09e51f64736f6c63430005100032",
  "source": "pragma solidity >=0.4.21 <0.7.0;\r\n/* SPDX-License-Identifier: UNLICENSED */\r\n\r\ncontract LumiToken{\r\n    // Constructor\r\n    // Set the total number of tokens\r\n    // Read the total number of token\r\n    uint256 public totalSupply;\r\n\r\n    constructor () public {\r\n        totalSupply = 10000000;\r\n    }\r\n\r\n}",
  "sourcePath": "/mnt/c/Users/altam/Projects/GitHub/lumichain.github.io/lumi_token/contracts/LumiToken.sol",
  "compiler": {
    "name": "solc",
    "version": "0.5.16+commit.9c3226ce.Emscripten.clang"
  },
  "schemaVersion": "3.2.0",
  "updatedAt": "2020-06-15T19:19:48.262Z",
  "networkType": "ethereum",
  "devdoc": {
    "methods": {}
  },
  "userdoc": {
    "methods": {}
  }
}